:020000040801F1
:1000000018240120E1740408D5740408D774040886
:10001000DD740408D9740408DB740408DF74040870
:10002000DF740408DF740408DF740408DF74040854
:10003000DF740408DF74040853CD0208DDCA020827
:10004000E77D0208F17D0208FB7D0208057E0208BB
:100050000F7E0208197E0208237E02082D7E020808
:10006000377E0208417E02084B7E0208557E020858
:100070005F7E0208697E0208737E02087D7E0208A8
:10008000877E0208917E02089B7E0208A57E0208F8
:10009000AF7E0208B97E0208C37E0208CD7E020848
:1000A000D77E0208E17E0208EB7E0208F57E020898
:1000B000FF7E0208097F0208137F02081D7F0208E5
:1000C000277F0208317F02083B7F0208457F020834
:1000D0004F7F0208597F0208637F02086D7F020884
:1000E000777F0208817F02088B7F0208957F0208D4
:1000F0009F7F0208A97F0208B37F0208BD7F020824
:10010000C77F0208D17F0208DB7F0208E57F020873
:10011000EF7F0208F97F0208038002080D800208C1
:1001200017800208218002082B800208358002080F
:100130003F80020849800208538002085D8002085F
:1001400067800208718002087B80020885800208AF
:100150008F80020899800208A3800208AD800208FF
:10016000B7800208C1800208CB800208D58002084F
:10017000DF800208E9800208F3800208FD8002089F
:0401800007810208E9
:100184002F696D616765732F6C6D695F6C6F676F45
:100194002E6769660047494638396120036200F7D3
:1001A40000000202030A090604060B08070A0508F0
:1001B4000E0B0B0C0F0F0E10100E020512060A1375
:1001C4000E0D11070D19080D1B100F120C10150A36
:1001D400111D13121416151818171918181A1C1AA9
:1001E4001D211F1E080E220A142405132B0C162A87
:1001F4000D192D1E1D21141A280716350E1B340E39
:100204001D39111E35101F3B211F221821311B25BA
:100214003712213D23222527262928272A28282961
:100224002B2A2D2E2E30232B38302F312D313934DB
:1002340033343736383837393B3B3C403F3F0A1D6F
:10024400420E244D13244414274A16294C1B2B4ACE
:10025400162B53182E55172E5A1A30571A325D275B
:10026400334A2A34493C3D42293957142F611C35FD
:10027400641A35681E396C1D3B74253C69213E7433
:10028400213F78403F413D434F1F407C2D4269351B
:10029400486E29447623427B334B78434344484693
:1002A400474746494847494B4B4C4449534E4D51A7
:1002B400504F514F50525453545856595B5B5C46FF
:1002C400536B5A5C63615F615C6169646364676614
:1002D400686C6B6C6C6D726F6F7274737477777912
:1002E4007B7A7B807F7F81807E001E8F002492003A
:1002F4002B950030970234990B359A06389B0B3BAB
:100304009D123E9E1C428A12409F254683274888A0
:10031400294C8C365288254C972A4E922C51952D77
:10032400539C37599A3D609F1443A11A46A21C4915
:10033400A42D56A42653AB2A55A9325AA4325CAC38
:10034400325EB23B61AC2E60BD3864B73563BB4FDF
:100354006795737B8A4869A85772A6456BB4517236
:10036400B15677B93A6AC63D70D1426EC34975C970
:10037400537CCA4D7BD3807F807A83947689AC6525
:1003840082BD5B82CC5984D56789C9728EC6789345
:10039400C8658CD36E91D37798D66993E2848384AD
:1003A4008686888B8B8C8D8F9394939496979A9C46
:1003B4009B9BA09F9F8995AD999CA39DA2AEA4A34E
:1003C400A4A6A6A9ACABACB0AFAFACAEB4B3B3B457
:1003D400B7B7B9BCBBBCC0BFBE849BC9829ED39710
:1003E400A8CC89A5DA93A8D294A9D39BADD3AFB8EE
:1003F400C8A7B6D6B2BFDA94B0E3C1BFC0BEC1C805
:10040400B9C3DABCC8E1C4C3C4C5C6C9C8C7C8CB6C
:10041400CBCCD1CBC4D0CECFC5CBD7CCCDD2CED004
:10042400D4CDD2DBD1D0D0D3D2D3D9D7D7D4D6DA86
:10043400D6D8DCDCDCDCE0DEDEDEE0DEE1E1DFEAD7
:10044400E7DEC4CDE2CCD3E4D4D9E3D5DAE7DCDE0D
:10045400E2E0DFE0DEE0E3DEE1EBDDE2F0E4E4E471
:10046400E8E7E6E6E8E6E9E8E6E5E6EAE9E7E8E615
:10047400E8EBECEBEBF0EEEEEEF0EEF1F0EFE6E9AC
:10048400F1EEEEF1F1EFF0EFF0F2F4F3F4F8F6F749
:10049400F7F8F7FAF9F7F6F6F8F9F7F8F7F8FAFAD9
:1004A400FAFA2C00000000200362000008FF009FFD
:1004B4003D8B26F099B56BD60A2A54682DA1C06BE2
:1004C40010AF116C2890E2C281D72A4ABCC851A14E
:1004D400B367D3A6751C49B2644167193F16CC783B
:1004E400F2D935950F3DBA8489F299CA8FD83C86E2
:1004F40084E952E6CB932915B214E8CC9AC8911F2B
:100504007FAEB429D463D0A52D95724CEAD128C905
:10051400A43C8732D55A33AB4FAF51693E8D7972C3
:1005240067D3B2D5C432854A746CCFB04DC112B50D
:100534008A746649AE6EB9DAED98F4A8CDBC5FCF83
:10054400726C66B2B061B636CD229EEAF6B0E3C7ED
:1005540090234B9E4C99A45EA95D05279E2677ABFC
:10056400DACE28A50A7C24C48914272C46FC400230
:100574000854284052A43C31FDE4070B2991F6B0FD
:10058400D840618410212C582041F2E3476927A602
:10059400F748012E84380B217B22C146521A8993D5
:1005A4003DB09F443A558C1830621F9B85FFCCA602
:1005B4004DDBB6F3E6D3A5DBE64D5D3BF5EADCC1E6
:1005C40063C70E9E7D78F8F2EBDFBF9F1F7F7CFE32
:1005D400F517A07E0312C81F3F05E293CF810926B9
:1005E40008E081FF35E86084105668A08517FED7BF
:1005F4001F831A62F8A0870E86E8E18719960860BF
:1006040083146E08228A20A648E08423BA989F881F
:1006140031B638228BFAD903CF821A4E0863874049
:10062400CEC8A18A41FEF85F3DF6E1835F7EF5D432
:10063400A3637E49E2670F3EFA28891F3F49EA1700
:100644004F905C76E9E597F9DD93A39256DE67A6B1
:1006540099EEA8A3E63BF6C5A34E3AF1C1E90E7D97
:10066400F29D594F8F329268A29E7CF289E08AF9FA
:10067400E903CF4050748041071F6020800018E8D0
:10068400D04726890CC143113CD440030616D4C07C
:10069400471E1D00000002962260010D3C5CDA0139
:1006A400A235E8C083A48662B000063414FF8147F3
:1006B400A51F7440430D431C51440D1F143149318F
:1006C400C314934C41D46473DE36E6AC870D36D242
:1006D40018638C32D060D3CE99FCFD63AD3FD666EF
:1006E400ABEDB6DC76EBEDB7E0862BEEB8E4966BBB
:1006F400EEB9E8A6ABEEBAECB6EBEEBBF0C66B2EE9
:100704003FDB62FBADBDF2E69BAD3FF8FC836D3F82
:10071400F8F4E3EF3EF9F893CF9F7F5ADB2F82FE84
:10072400F1E38FC0F818FC4FBFFD549CCFB518EB14
:100734009B2EBED8FA832D8F11F7E38F83622A395B
:100744000F3CF3E0A34E46D7B8A3A43C66CA0333D8
:100754003EF3A4DCAFC6387BAB8F444E7C504206DC
:100764001A80B000010B5C70831F8EE4E1830E37A6
:10077400D810420938E0E0031E445C00000846DC5F
:10078400F080063A44E14308208060430F3BEC804C
:1007940084123624B000083B10B1C30D2594608345
:1007A4000D3AEC6004114EEF800723C018FF238D2F
:1007B40040D598C70D37D754B34B2EC27C22892419
:1007C4009F28FE892FB868631F924B9EC84F3E0234
:1007D400579CF3E69C77EEF9E7A0872EFAE8E68EBD
:1007E400FC0F820F674EEF3F02FB8BAFB5AD6B4E34
:1007F400FAB602F3D3CFE50CF368648522EAEEDFA0
:10080400C1F960DE8FF0AD735E3CEB22577CBBF028
:100814000806FFE33DF2CC134F92EAEC224B2A6028
:1008240080914A36F7D5779F3B62EA83F9EFB3BFED
:100834008BCF404ED48083D31E304000010224E08D
:10084400811E8A28E101D0196450021146E891877B
:100854000D00B0011ED2C6001FE8C108739B9B0F98
:10086400DCE603239420011F58A00F6CE081108460
:10087400E0063EF0C10D74A08312E8A01095F004C8
:1008840031A6918D684C431C2F3106B03CE1894759
:10089400006212A298041FA213094A48A216D8683B
:1008A400529666643BE595EF87400CA210FF87489B
:1008B400C422D66B780C6358E64E27BB8A3DCC5ACB
:1008C400B6731DEBEEB5BA7765EE760FA3577EB21D
:1008D4000826FDD8AC4B016A18C22E67B11EDECEC5
:1008E4005B55ECD6F1BCE543E409EC60C303981214
:1008F40081748F7BD4237AF1B8873BF6810D55A49C
:10090400010D56B0421774A1A3FBC06C1E582A07F0
:100914007E0C0620239A0B1F22D9030F6ED0340FAE
:100924005C406D091000004A80072358F2021660EB
:1009340040026C10053DF821091710600908900069
:100944001EFC210A38B841D48880371E1CF00645A5
:1009540048820E6CD0B4B9E1800837B0A00D4A705B
:10096400844DFC8217858B4632A4310C4F90A2171C
:10097400C23845231071083E680215990044243496
:100984004189484C4212C4B80F7F2CC644479AF39D
:100994009CE84CA73A1D19472C9E1179FF209EEA2A
:1009A4003417C528AE515B1E6357ECA608FFBB8AFB
:1009B40001281FE2EBA24081643BCB55AC87FE4A81
:1009C400E3BEC075CFD3FDCB8DCA3BE8ED2EC73A4D
:1009D400FE544943629AC73D4E068F7F3C430D69DE
:1009E400500317BAE0855CDCC990F868473274514B
:1009F4008B5A10631B118BE23ABB75BE68488107A2
:100A040025B8C00534A0530688120002D0800D78A2
:100A1400AAD30B2C609446C803D58A5004105C807A
:100A2400013838441E766083B6B96D7F8AF80311A5
:100A34008A30411B448D69BCFC80073E7083284882
:100A4400E217CA30DC2C62D10B523C820F97E0CE05
:100A54002932A1084C38A21193B0E12432B10949DA
:100A64003C2212B3D8863C4A4620CDE573A6884D75
:100A7400AC6217CBD86F590C8EFD4CDDE956E730CC
:100A8400D6FDEB5FF9D847B6F629AF7D164F7954FA
:100A9400AAA897EEE4A5CA15298CCD9B68C7B8B55A
:100AA4004F99B2365B0882E21511A43C32FF06EC82
:100AB4004F1FBA287FEAC8D17BD8A71FD9F0631A81
:100AC400AC70052FE8E2A4F691073E98D10957AC23
:100AD4008215AE78464C1B3A537C38231A4EC0E933
:100AE4000312C0800B3CC0A709805F7745B900A002
:100AF40069406D25F081AC0A31400F68E0067DF055
:100B04004311A476B7A625A1117DD8A52CD7878338
:100B140049824DAC398042258EB10B620CA3138FF0
:100B2400D8C31EA230842420621295A804262CB1B6
:100B3400894C1C02119168442424510949404212F1
:100B44009E48063CC494447B36F6C4284EB18A833E
:100B540048DBDB5D716494B5273959E730279A98EF
:100B64009F388B5DF36C0732202D698741326D8786
:100B74002E47DA802D68A2AED5D63EF3794F1DDB21
:100B8400AB87B6E37194F3D3E37FFEC766BC55121B
:100B9400F43AAA8D54A0410D57286E2EA6244E78FF
:100BA400DC020DB368852C64F10C7D94B3FFB1E7CE
:100BB4007B86146A20CBF68577010B60409E4399AF
:100BC40080F032C00396DCDA0E92A0074B5842093B
:100BD40038885B14FC1085BA15E16E3830027E87C4
:100BE400EA555F8235047443C22346718A517842C0
:100BF4001393380402E5D6032710410779F84322FA
:100C0400F66A574B6022121BA644283CF10962A8DD
:100C140063433CA6EE8A77CDEB5EFB7A5E4A5E6365
:100C2400E62E16C75C9F0E8A95CD591C83A7B9651D
:100C34007B494C84DD4F46F3F3C581DE8E6211752A
:100C4400A2ECD6F5CE789A717827BA07C02EA621E1
:100C54009BCD43B9F8A88798E0113D78F4631A69ED
:100C640028431AAEC08592E2637A49AA472ECC2063
:100C74008B5640B7CDF1D4B53AE3FC059F31ED0175
:100C840002809F0018A0013E63520117F800083249
:100C9400404A3F24021374CD0330A3F007A5FD326C
:100CA4000A9D348222128103A1366DBFEBFFB3018A
:100CB40011F00005DC640213844884CCF5D0839FD2
:100CC4006560D05B8D421E76DE884D8082AE80905A
:100CD400F5264A01895A6CE34E24BE6D927FCDF409
:100CE400A63BBDD74BBC62C0E11945D3C18E5E9A09
:100CF400E5E761579C8F11FB67DAD4AEF6830E46A5
:100D04004666D71373985332432D966D262A0FEDFA
:100D140001BB7695F904BD306D54A3BEFDC735D42F
:100D24004086324C010B259D187E96940B34C88264
:100D340015AD882E400376E2F35DE307180041D336
:100D44001830804C2EDC927D6625032C6001FD61F9
:100D5400DA077F30B42510D1074598D21185D00326
:100D64001E9240E83FE8A1107E28B9DC28C94BDA7E
:100D7400CBD206376F0426541F85FADECF034840D2
:100D8400841F26A8035A2AA111A1708D2828210A9C
:100D94005140E211BDA8C63B08EB621C8BCBEAE8CC
:100DA400C2BE43D9582F854E565DDBCEBEFFF793A6
:100DB4000DAF2A0A9CFCB0E536BBBCAF7D7791FF32
:100DC400B3DDE7566CD315FE73CD5F5BE877FF6642
:100DD400C1B5F463736B642E365107D562FCD43A03
:100DE400B1D56C0E03630CE346F9972EF8900E759B
:100DF400622662976EFBB1206AE20E1898811AB8D7
:100E040081EE3631E8166D02056503E843F4523B82
:100E140066548234A64450B663F9217701A32705AA
:100E2400C20F25537729B35179B7776340064C2015
:100E34000425552523560FFE910B6A703D89275DC5
:100E4400DF372EECE77DEB872F0237312EC1020B03
:100E5400E001BF840308F73E45D35DF7B367F9E3C8
:100E6400015EB50379E00897E0087810059BB009A6
:100E74009A80098900867F80078860098DD0087F61
:100E840070031780694E730119F0497A36000BB06C
:100E9400037F807A7ED04921F0011AC03549B073AE
:100EA4008966045280043D50689510087EFF10093D
:100EB4004E0006624006AB400CE6B025331251AF3B
:100EC400052E17D32EB1D384D6D2899DD839EDA758
:100ED40076D6B72EF72770F75459F597330D083B9C
:100EE40050F43AEA0280B0782E9C458A4A084FA70B
:100EF400A82EA9C8509BD88AC1D662B27380DF37A6
:100F04003C09B544DFE659F2920EAF4006F54606B9
:100F1400685006F2A60ACFB5662D550BB9A00BB9D9
:100F2400C00CBB50062F100330108EE2388EE3281D
:100F3400035E500BEEC00FCA0582431620C1032086
:100F440012956DC2D84F6D248C02F846B6F58E0A00
:100F5400F2200003263553473473327A87065E50F5
:100F6400065530035C900B50621FFC720BFC960A12
:100F7400ABE00ACDD02F69C74FAF184FFDE42EB4B4
:100F8400B88BA6B82DF5F08408900046E303200042
:100F940054EFB3280FA0723EF07B3A8503795008D2
:100FA40089D00859A5738930749A60099AFF600A38
:100FB4003779099A100999700949B03E20C053E164
:100FC400954998A43637A00789A008F1A5043C40A8
:100FD400415C780320905E78907A46200440909596
:100FE4002CE002329005428005606006B3700EBAB0
:100FF400238051667EFB272EC0B889F1075BB26857
:101004008B4DA87D31D691C1C6466B348ABCF89607
:1010140075A946DC829768847F94057F9E088AE0E0
:10102400528AB4E358B4D384F7E77F8BD9506B5911
:101034007F7E892E17892EB53551A32875026375D5
:10104400076591B8C380EEE266B920031B60022AEB
:10105400108E32500557903DD0A806A9900AADA035
:1010640066B2500BB470059E529BB6799BB6A949E3
:1010740056E00CBA850F62826E340324FA98442336
:1010840028512D465B27386EA0D52FF7303E3DD42E
:1010940082FAB120138265C0E99B7564477A7706AA
:1010A4005D400632100457900B00831F40FFA80FC9
:1010B400B63006D7930A121953B5B89EDC46985435
:1010C400142E8EC7029DD767F9539403B02800B03D
:1010D4000037C03F13E4013A506896E00888A07ACC
:1010E4007850A05180088D10A098500AA590099AB4
:1010F400D07C9B80083C7049AC240003C04A7A58D9
:10110400341A50024AA0088A007B7DA00445B0032B
:101114009F7401A816053D304C1B10011120022CB0
:10112400B00230F0955CC00569B00BA6158FF5D7F9
:101134007FDA129968E431AB73468ED92D86992DE6
:10114400C1432EACB8999BF559489AA4D6223E4483
:101154009A46F47231FE118A6E8691FFB00F553AA9
:10116400315574314F3445C7A3208E157EE1A70F46
:101174006E86809F85306A7497159975F6A750F628
:10118400D24834068C04A397BAF889FB12A5DF323F
:1011940023DC223E17D3896C9A2D597A3A37238A55
:1011A400C0B30FF6822D7F7A2D3F8A6C8AFFBA2D49
:1011B40093E99798D9899F385B0F454FC533329A85
:1011C400758BE9422FBB200310800227D0023070B8
:1011D4009AF4E6057D7706AC990AAC200BAE900B29
:1011E400B43005003000053000B45AABB65A00B331
:1011F4008AABB25A00007005E9102613A822FD3804
:10120400230B52ACC8B982388A44D9569C48F43B63
:101214000A7264F028241D425825F3811DB50DA9D6
:10122400E00557B0012A7005BA30AC46960B67301A
:101234000BADB90ACCB03009252EB9188A3CDA2D89
:101244008BC99EA1B8A84AC62F2E71021F90043BD9
:10125400B00000D0677D76499AB4AF42A52A4C15F8
:10126400058DE0877E9007493086209707167757CB
:10127400AEA60937A9073B70018B125E09C74A6AFB
:10128400D35317E0038A6009ECC56878834146505C
:10129400A044A0010A404A4740022A701C3220049C
:1012A4005BA00563500BBF4A65B7D5769EFF989641
:1012B4006A69807019A638DB44DCF2A7FBB0468962
:1012C400EA6664BA7D2333A8F21A5AFFE066897A83
:1012D400A553F496594A30EEA98BFC14A8DD866C0C
:1012E4008D248BFAA0A619C997563A7571A4464560
:1012F400EA464DCA5AABF331C42630991A705B37AB
:101304003C91896400E2315D2A3E51B6B55E7BA50D
:10131400C143A6ADB320655B2F567498B5086357D7
:10132400074F824B634A76305044B6C5B8AEE57277
:1013340031A9D00026B0022F00032FB0045370054A
:101344002465AA5FD69A89870BADF002B18AABA255
:101354003BBAA37B000560BAA70B01004001B5F0BE
:101364000F4018823C62310AB2ACB4EB62C9E84F58
:1013740014F98207F3AC63079D5CE21F62B76EFD4C
:10138400500EAF205210600242500BB80BA6BA1098
:1013940006AAC09AABB00B14D964E4B296EBA96B5D
:1013A400C73399DB129F1D90045150928BFFB228D2
:1013B4003A95009E123F45939493600886D007099E
:1013C4009B7A85C87BFCE307A4C7078E6009895014
:1013D40004E7E52918CBAF47C55D16105E1FD0079B
:1013E4009B90087870B054080247D00899D00851EF
:1013F40050021510050F1A08D4211B40B00580D7E0
:101404000ADAB051FC214F51D791A6338AC956A4A8
:10141400C0538B97B9446ED4A5C2C6AE7B99B8AC01
:101424005391403A80075845DF965900E3B4D602F9
:10143400B4B028A65D7B63D4452F729BC376DBA42E
:10144400536BA5FDB00F47DA469C455B0F235969E2
:101454005946F6E29E76EAB500958228981FF8A4CC
:101464002D56BC759B55A59AA3B7F49844FED20F8C
:101474007AAB0F5947A65B3BA93E3B5924D8435549
:101484009A751DC384B58BB3E5D44654AB3C06337F
:101494006C5196AC791C80CB7350641751ED5A2E65
:1014A40002030F5E300028409A2F50B941FF5005C7
:1014B4005AA09A68F065ACB00AB3B00A2AE029B918
:1014C400AAAB975CBAA27B00070001052000683034
:1014D40031FB519D14F28EBBFB82F0B83CB9D38230
:1014E400D21951F0683BFB009DFE01AE037565C146
:1014F400996EFFA00DADA0065D30012A8005B450A1
:1015040020C1A30B65B00A8FAC0AE7FA6632957F57
:101514003F8A97E117C2F828A9A11851B78B50A7A1
:1015240008312E810208708717300040A5490290C7
:10153400014349BE44239245100AC3200A7A400459
:10154400A57437AF473538D00346C07A20770425D1
:10155400A0AFE1CBAFFACC4AFD9B0021A0078D5090
:101564000846007221100020900796000AA2D008B5
:10157400EBAB070B8A095020044F20044C00046194
:10158400E00AD3F00E6C129D354BBBD6FC762518C1
:101594004712638C4E548076DA6C57D46C922A636B
:1015A400F4A88998F344610B5136F66D37FFAC8982
:1015B4009509A8C743A7FE27A8A1C8C2DDE266789B
:1015C400FA6469C759D485C4B0D3A73D3D75BA58E8
:1015D40063145582926A80F558BDB228321CC35AEE
:1015E40099C9A5F134A818B93A881BC6E4568019DC
:1015F400D98A627C80D9DBA4455BC79A48A47B5B0B
:101604003045ECA4803A325C6CC2283DD74CCCC740
:101614003856BB789DD766C4C1D65B2E6EB60B30E8
:1016240050002780C8DFB8048CFC8C6780AAAAE02D
:101634000A6990020030BABB1AD9001000A2BBABF1
:10164400A3DB00003005EED00F458627555650A683
:101654008CBBED84768F158F8DC443CDB38FD2E9C7
:10166400ACCFCADA7B0224FF900EAC80065DA000EA
:10167400144005B7A00F038239BA4006AED077AA4A
:10168400800C0B63C7364BDC736DD322436C69FB50
:1016940050F0348CB538D79D488C8E5701B10A541C
:1016A400E55B9B02904A1E205E97F40188FF000CC4
:1016B400C0204349700446C003050C4B5545553AB8
:1016C40060043B9001E5FB3EFC1B5EF0C34A0FF057
:1016D400000BA001469008F6FB0785D0087A503726
:1016E4007E9009A1100AA5700AA0C608FE4D1D42ED
:1016F40050055C2096D4D00E1A5D6461148007985E
:1017040045C8D66C53F4A3225375716A59759AD49B
:10171400F5577DF17430A933CB5E4A6C2D9CC326FA
:101724000CAF5ECBC587693B4B7C2D99A93AB08839
:10173400595D4CA5C69845219DA4330ED61005517C
:10174400C1E30F4CFBD40167C73BE67FCC934F0545
:1017540083C27DEDA561DD3AABB5E2F48282C6C8F1
:10176400B6CCB6BB0AA3DC65C7C1676CD5360B8B98
:1017740014C9C5650A5165AA59454B6C0F63A8FE87
:1017840010B457CAB49A15B45277E276FA2F761C7D
:10179400706474A47BFC6DC769BBC85A3B7EFC466D
:1017A400E6F30FAB10011360022280C830FF100370
:1017B400974B6FD088AAAB500626809B9EB2AB0491
:1017C40040AB0987C9054000BAAABA26A00BF12488
:1017D4003EECF8221B52A4FF945A703BCB452A805E
:1017E400A24CAC2782CAE0F62107D5EA03650FFFB5
:1017F400B00DC6CC0500000132A00B6EB61FFDB0C3
:101804000B64A00A0519BD1D856D18AED247AAC682
:10181400C3C6C23696991D2E3232EE2F758A2D1408
:10182400A5ECD8E2782380004F8567A214BE40253A
:10183400541990000F900145A3037C30093279407C
:10184400099B047753025C18021AC08536F00026FF
:10185400997045795409173F7F2656FFF986300958
:10186400938A403578F007080A0AA7700AA130095C
:101874008010D141000690200BCD200EE7D00ED36E
:10188400F245FE343E07953A599499592459671400
:10189400C350C4A52F1DC330BDE125986C695E7D7E
:1018A400B4E831C3D6A554DBDC18733CD0FFDEB5F5
:1018B40066BDB4528B911F8344596BA57024773253
:1018C400DED5AAC3B7D71E8BF2648F786D306477E8
:1018D40039C1B3F47CCAC125B68FFEE23C6394449B
:1018E400259FD21543306924F35B37D5F3D44323C2
:1018F400EF767C4E767D5ADA3EB4AC2D8DC4ADD3F2
:10190400C6636CC66CDFE6661CB6ED74C3FB30F7C9
:10191400D982A56D5763B1B3F1730CE5B245D59681
:101924002A82771E98741EB400E8EC66FF99F9E0E9
:101934000502B001A3790228A0023110033270B964
:101944005C10066580069CE005A369021440011141
:10195400A00012E0F9993EFAA42BBA9A8EAB10209B
:10196400000AC009F8B78F11B2DBF9D09C346B3987
:1019740062843AFEA1DBBBCB3054B6F4ACDE8FBA42
:10198400932743A621B57EEBB91E03BC3E31ED047B
:10199400ECABB09DA9A00BC56E3AEE849987E544E3
:1019A4001D4FCD8B1BF251BFE11D0EE3D4FF9C3CB8
:1019B400311F5B3585043480033AF055B8770198BC
:1019C400279263654979760120B0DEA9F607F23FD4
:1019D4005514A45379E6531A40EE0AC74AEF03108C
:1019E40004122420B020830710203CDC30928408A9
:1019F4008E1D376C44B481C3868D227C10518AF4C9
:101A0400C88F1E285F56250B27CE1CB974EFE0C97A
:101A1400C3872FDFCB7EFCFACDECF7EFDF4C7E37AC
:101A24006BDA8C9993A64D7CFAFEE5B379D3E85032
:101A34009B39FFF1F35933A6BF9BFE64EEC4B9F39F
:101A4400A8CE9950A11A9D79D4A94EB0609D7EED7F
:101A5400974F28D27EF86AF2F337F6663E7F2E97C8
:101A6400962D4B941F51A831C9DEFDB7F59FBEB624
:101A7400FAF4C5CC77172F519A89FBF9F3A7EF6EC7
:101A84005BBC86F3D59C9C982953A952E9E673590B
:101A9400F67261A68AA19A655C16DFD6D16E15AF7F
:101AA400F5C9D4EE54A7F85A0F950954EDFFDBCAD3
:101AB40089737FC5BA9AE757C1FD040F1E2ED8E675
:101AC400709A2F2BEF1BBE4FF85F7DFB9CC39CCC01
:101AD400F49FF3BE327D86F55CB46B569DB097E6F9
:101AE400DB5794E7EFAD89B19E37DFDEFDFBF3CF23
:101AF40064143041C1040AFC2F64C498A2854B9736
:101B040031D2F0620200B8F0A28B2EAA90618AFD55
:101B14002820A000082324608008233CE0800600DD
:101B2400B8E2AAB75A62CA430F436B29ADB4EE02B6
:101B340011B3B2DEBA8BC4D086E24CADCAD41AB1AA
:101B44002E7E5A72A94697409BCC461C4D94CDC616
:101B54007FB859058D2E0050E0055B06938DA87F54
:101B6400760963152FBC4843177CFE916D2BEBBEA1
:101B7400B3AA2BEFB2E43228A4CEDB89C9A1B61CE8
:101B840093B7AEF661AB267C9E89660F1E76D06154
:101B9400073975B0E1831242C820010118B0E1068B
:101BA4000F181868A010702002114B12C9FF030708
:101BB4000F3CC8E08181185860810B2E10E052015F
:101BC400068D74010D3EF0E0024813B88001023026
:101BD400C53481502FD0C0831C8400641140FE881A
:101BE40024966BB211871C73DA81E71E1B5FD42B1A
:101BF400B4CAA25A4CBD6179BBA9B6C9DA5AAFB707
:101C0400B6862D6F329EE0E292ACB77E12CA2FE701
:101C14006AF26B2EEFB6CDF6BAC5CC33CEBB977253
:101C240022B3CCAA9662AFB098DE4A6A32A298EC8C
:101C3400E9D8A572D2AC599A94ED09307FE44D6A83
:101C4400B0DAB4BB4CA6C232BB0C272641630C45A8
:101C54009AB663ACBCBEB4A54DA9BC92AA6AB1B88D
:101C6400DE1D2B2D26619C89C97D94D3CB2BB566B3
:101C74001ACC5DBD14FBCDAEDB4C2EEE657D72E35C
:101C84002C3AE91C132AB871398BB7E48FF35DF34E
:101C9400D89E926B162695A74D362BCF82FE0AB19D
:101CA4009FE073DA69A15CA90002134C10FF4104A0
:101CB4001550680106FEAEB8828B31B888A0800347
:101CC40062082288185E7821EBFA2A94D06D0B21E1
:101CD4000040856BDAE392B3CB64EB9133CB3AE308
:101CE40027E49C5AB20B5E173FD67B491D3FAEEEEC
:101CF400C71D5D121CC61B71B471F22AB759E50CDD
:101D04002E002820865AAAC4D1A65DC048E5C02961
:101D1400AB6C395FBAA49A4BF19F8ABD6AE4A3B154
:101D2400C217AD648F6EEABB9CE071530A1E6CF05F
:101D34004083071EC840030D54CD6001020860E0D3
:101D4400038B2EE053004A35B0010F449200B4D205
:101D5400E2259D74D2E7334D6001491360A0F881F8
:101D64004AC51400F409407F804B0718E0C1000203
:101D740070E113603E89A412538A49C79C5CE181D7
:101D8400A71ECA198663A1998A769496322BC5A494
:101D940064062C60D22CD313823570600EFC55552A
:101DA400F2718FDF78A53DECD2E06A9A56FF94A6D3
:101DB400D8E425223C566D48089A8F8D0729217C4A
:101DC4000D62E02215D738E638FC7AE05B04333044
:101DD400CF154C2A8EE9977296A4B71A61266F6CB8
:101DE40021E2C04AF33173B1054BCA028ABD94A5FE
:101DF400140D6A45297C4BA09518C3B414996E2818
:101E040030640F4D8C53989B74E6279C011A4F4EF7
:101E1400C6379B21876F69920E73A2F397F2C4B100
:101E240075BD2120037112C18649103606BC63CAF0
:101E34000486C4A409CC5D4F23A4B8FE31860244B1
:101E4400E06A2230C10950B08217C0400632B04265
:101E540017A60001015C2800E8E324002E053708DA
:101E64005DE8006483C0280B000108048002AE789A
:101E74004F5D423441BE7D282D40D4598D96229722
:101E84001ABDA8309D699CE37EC4A301CA05443CE5
:101E94003A11DE4254A574B0820C5600000464A0CA
:101EA4000BC4B4C426BA00832A1094865CFFC0A372
:101EB4005E8A1118BBEC189A8B25704676F4E31EE3
:101EC4007F45C00A82932D6D8A86148AD0031B64D1
:101ED4004000035000A53290010608EF02942A0145
:101EE400118E70030570325319D0810F7A97814A8D
:101EF400854F7C094080A9C0B780E70904A203E1AB
:101F04005E02149080013C0F7DF32C800220A4001B
:101F140026AC8218F57B442448B18D77A4B41EFE08
:101F2400EB952FFBE841981E30A633A5694D7D4300
:101F34002CDAB02762C212235600B7BAE428A75C91
:101F44009251CE67565497C2944BA8018357528B33
:101F54009A13BE188631F8124ECC5CA8D48195B081
:101F6400888449EA877078B8204A058846BD235C8E
:101F74003063BAC5DC664D93B9C7C818432FB8247B
:101F8400A54A2B0CDC4EF8C299904DCC85BD215648
:101F9400CFC65825BF56F53BC5E16565F4810FE909
:101FA400D4E4B03859CF1AAB6353C84636FFB26590
:101FB400AA56212D6B937A4C813E56BBDA7DB4161A
:101FC4008305714106A52CE5855009818F12E00037
:101FD4000630A5285B6B5AD29EF60061789A53D8D6
:101FE40015B4A9D412586A51E72C09C65BBDDC08A4
:101FF400B0BCBD8C586F99CB1E990647B3FC653FA6
:10200400DA6ACB6DA4620C57D09C0A7271162EED5D
:10201400A20BA9C80217CE600B6D6E4CB21E04E76A
:102024007821FB479BE82E1A4F18820E6E508205CA
:1020340078CF021EB000035485A74F95200978C0BD
:1020440081A53C2980826460073E001EF80652A9DF
:10205400F80A14A2EA4B9FF70635A1EF315800EBBA
:10206400A350010432011C20A113CDD8062F3CF14A
:1020740008562823A52AE115E57E344B9B8A852A38
:102084001B53F18AF9FA9BEF1C055A73F44D15C5DD
:102094008A977ED4C34CDEC1E04EB944D930095589
:1020A400C8601C4F517942D4218BCC45E5FFEA4BE3
:1020B400E4963A54240B7960AE018D6B6AE48F90F8
:1020C400BD8498C71C6B0071A42369C1E4AD9E93C1
:1020D4008D95AE94968CBDE831AA232389CC0C55FA
:1020E400C7B9866336920ADEBCA31EE334AD2B5E09
:1020F4006213B4AC041BC188D164CE910ECF06B96F
:10210400CBAE50475D6EE14E585A6C5E9AEA043489
:102114003A59EC6509898B1340E0048B3441D6505D
:102124000003494EE10514209B6B0FE03E0BABD638
:10213400C2A10CE56B456900544620020178813642
:102144000BA9ADBBC0E6BC5019912CCBDB3008B653
:10215400C8B73311A6DEF2989C71DA521DA3A36EA0
:10216400015670DD23E764175C4883D7CA00DE1785
:10217400AF27C65A72F1B460FC6818C3D42BBA31C5
:10218400DD33AE21840E94A0511E8014031870D147
:1021940007E4130425F84008E8AD031E84E00112A7
:1021A40026C8032AA201EDB9FBA197F2A4FF40338C
:1021B400652A82244F20E62380024A25AA7B7A00DE
:1021C4000778F0431200818B6D6CA31895E84431B5
:1021D40054128F794C2E883C3BB665747DCE98168C
:1021E40050D72B3F79CA647AC05FF3DA59C39AABEC
:1021F400C74668CBBECCA5466991B4904F782C21D4
:1022040053A65E42DD4995AE0A13B42825D7773923
:102214002C3F78F838A14E6CAC9739EC8DE2D2ABF8
:1022240077B4C39735BA47DE3C74F55F8AF5322E2E
:1022340092CD0DAF8CF39D87B14A32D7D94B84022E
:10224400C6C3EE92473977EC75E89C979DA9E5B033
:10225400E1AEF9D56DDB2FD3D4252D4251EE0165C6
:1022640043ECAA9A874904A30A166BFA476E42BE46
:10227400822FBDD8AF736BAE9640058AB7866A3D90
:10228400EE710F79CC631E6880400438CB48FC683B
:102294004D922A8880021A606A56274F941632F5A6
:1022A400014A3B4A0848200213A04F2E2CFFFD6729
:1022B40037E7119D170353CAF9D82EBD979969EAD8
:1022C4006C20CAD563AE7FA483D99A7BB6558A3273
:1022D4006D3570C10A63C07665741DB9D5FCDAF931
:1022E400E4A5BCCB67CA4027B2D3091D50880610A9
:1022F4003AD152D9739F17B8810E02C580462D80FA
:1023040093E65B1E7CC5173E4199B0F3F92F53C980
:10231400284DE1135479804A993721808228C88353
:1023240046680429C0012688856A58876DC0055906
:1023340010317928311B512EE1DA8DE3EBA33DFAFC
:1023440023733AB6111CBE8B293F970327A0589DCF
:102354001D018A708189CC7B33BDE29824CBC1A056
:102364007391C0218AA9CB2535CB351D51BE209A46
:10237400B2BC21B6A73242AFCAB5C9C9875110044D
:1023840039A08470D80713AB422BFC4191C9A59B9B
:10239400C0A0A68A18196991A2A8B291D38E26F377
:1023A400B5CEF0A59CA2C21949A0AA3BBCFFD3B8E4
:1023B4000D3072412A3A2CC2130EAA800EAC180CAE
:1023C400E128BED1201331E40B7CB007E2FAA6F079
:1023D40033BFDE2AC1E66BC1122436C018BB0DC25E
:1023E40087CF830776482979780776480775C844E4
:1023F4007848077660876D9802D3E3B4D4DB1A1962
:10240400388109A0000A9000B22935D762ADDA1BE1
:1024140025593B25543A00599B00099000548400E7
:102424000A5805A1FBBD3B3B93DE18B716343904AB
:102434002A361122466E32B993238A6D50033060D6
:1024440002CD39815A203CF3D0852C508329A8022F
:10245400EED326E6233FF3C32D143C3E969B3C313A
:1024640052C1B22AB776A2813FF180486938EEE1C1
:1024740094E2B9000FF09DE25980862238021C9E36
:10248400F91B1588C24783CB94E4B914895A30E503
:1024940089B77B02011D88823FE8833F7084421024
:1024A400021BC0024F58866F1807629805FF65002B
:1024B400A02A2CC212A13C1D1C322B6BA08FA48E0F
:1024C400DDA089C3F3A02133B9B91043698A0B2273
:1024D4008AA692B92099A1C291448C28F38C112A1E
:1024E400BA81E10C70288673B0923F730DD3010753
:1024F4006378877A191819E207655006C4EA2A2511
:102504002C42A8CB8762180437800337100533BBED
:1025140042915B866540AC5FFA0CA4C30770500619
:102524007A6832BAD08B1D11431882A2DBB80E32FE
:1025340094A697A48BA66CB310C4C19A7BACB9F2D1
:102544003EC13BB2B982B343238C305A0BAB7A8A77
:102554003F6C1CC7131998DA8DA0EB89A6FA48EDD5
:1025640048C99FE0111CE1157850079548876EC053
:10257400444CCCCC77D0CC74E04476508776A88792
:102584005D50810D3801CF4A3DD5AB0F54DA00DEE2
:102594003B000A380005A8BDD3221BD64AA40D88E7
:1025A4000003988008D04554A480533481FF093037
:1025B400015EC40778A84226820F283ACB8D099C75
:1025C400DBD1B3AED00C75C9A030994EF3F889A80D
:1025D400528A76290BA148074EE0822A8846686B06
:1025E4000F5DB8023458021918035A708732592300
:1025F4004103969A5CAAA54318C844AAC5444C93BF
:10260400AC12F592021A08817A549E7D52A807E80A
:1026140094ECB1004FB90008111FFD23C004F81D4C
:10262400FBDA273ED9285311C8E479B041B994F2B2
:10263400713706D8013EE8032840844C5004270033
:102644000227E80469C84048888570A8118D7CA5D4
:1026540092113405EA99CA584CA412BCD520BACDBB
:10266400089635923495E31B92D432DE32BACF29E0
:10267400117AB9B25BB21235594978B98B2C233629
:102684001821BA8F041A05CA911AA1874A188441DD
:1026940048846208CA0FF98770B8D22C5506C9A9B4
:1026A400BA7F108749200442588471C84AFF35FB19
:1026B400A596FAC051988337A0033798047AA01CD2
:1026C4000FF4407E68873325844908877FA807C9AB
:1026D400414374100542C85270A098A3D222633BB0
:1026E400CA3BAA0761F88461A807BC99B2A8F39110
:1026F4001CC911E5A09DB46313BE4A21504D98F343
:1027040028C93C6317255BBC19B98D330CAA63E354
:10271400191F6DAA9491199191D5A0123237B491D1
:10272400954AA94EBCC474D8C474580775F8CC60D3
:10273400B54C4CCCC449540776C0875B30CDAC5102
:1027440001674501477A01E1044E0AE8CD548480CB
:102754000940A508D15654A20005E8CD4492006C66
:102764003D45E014015414810DA80FE2EC07FFF17C
:102774009F486C89E36429EBB389E4DC31CF680BAF
:102784002FB94E40E20DEB300A78810CBBB98E199B
:102794009BD7F358362DA00200188013184FF3D896
:1027A40005F364102F9005F69CD1C0520CFFEA503B
:1027B4001CFC9CD592945199614EC4249A06B21281
:1027C40037D98322F0818BC08110F0800F18950CCB
:1027D40050B707A0140F50377BC3811B189E8BF092
:1027E400000114408378D97D9230029C5007AB508D
:1027F40082781F005B8008E08028C08445C0834243
:10280400B0843F90021F100230580528A102597865
:10281400878DCC25C609232D9B339D210CE01223E3
:102824001F8A252B7911E79009BF91CC7CD03160A8
:10283400A38B9D33BFB17D89CC081AEAA0D2B8809E
:10284400971C151C2BAB552DEB5B8EB14F21FCA1B6
:1028540015C98960980337788336980400FA9096EE
:10286400D0875138DC37708345088AC3E18C5E8099
:102874005C37E8857A30B35D92BBC769C27DF88462
:10288400398003C39D0474B8C2CF739C608803C8A5
:10289400AD8471602EE4DADC627803DA7D834AD891
:1028A400DCD3589113615C25AA17D9F884FF3A98B0
:1028B400833A2085AC7453C141345D3A4398F82D72
:1028C4008B31918FDD5420CB2DCA384B68A9D4A904
:1028D40058A0C28819ED14A0123943C739DBDF525E
:1028E40033B0ED485F8A2524CC5427AD32C6642E1C
:1028F400E3ECC47570877740567580DF4B44D67619
:10290400E04449FC4C4B9CC4FD85076AB882D484DE
:10291400561580011538810D30D7DF9435522B3D83
:102924005CBC560A981A54C2C56E9D00724545D4C3
:1029340044D74E3B0109308156480B788887CFBB7A
:1029440007D1334E49FC1FCAD996A2904EF3283EB4
:1029540024B2CEE8F40E7AB59B1F7B8FCD838F9A79
:10296400500735B802661A0011C80563F9075DA857
:10297400023290812AE0825798D83B222EDFDA393E
:102984009DF11BF315A34C7DE217190ADEBA076308
:102994005AA0B07D2C2D7B866788043EC8832348CB
:1029A40002236094DF111E1CC001794A80FF12309B
:1029B4008228880288386322300223D881F89294CE
:1029C40053191E0698B0FFFA594C619FF201B08169
:1029D400709F07F99E0700013CD8044CC80329F8EE
:1029E400033D780226008220A08229800131788666
:1029F4007B384E1313AA1159929D5C3A1422A211EA
:102A0400192AB705521C025BB9134A192991A882E5
:102A14004B12D9E41481AAC054BBB2FDB37E290F72
:102A2400C3482030FA11AEB5CFB8D5A54D8D079C5B
:102A340038BCBEFD07D18D033A78034350862BDEA4
:102A44000770480437A003399D03709011691A0771
:102A54004A788339888338A8847628DBCF35DE1713
:102A6400B1115118DDD23D8770365E5CAD846CCEF9
:102A7400E637100562929C7F208536A0036D16848C
:102A8400B20CE54CCD3CB485AA7901074170833979
:102A94006883441887B4BB1152BEABC0A362B9109B
:102AA4005FC65C12EA45981B74AA1AAD8BFF983175
:102AB4009CA4F20CA73B18C208199E5155C3D0DD43
:102AC400E915CAB26A2AA1DCE78FCE351473D2FCA9
:102AD4008457FF915F7780879472877468874C8CE2
:102AE400E94E34079578DFACB3444B94875488811E
:102AF4001568D616705604764DE0D43D6C953515A0
:102B0400F88120A802266082200002151001DDCB86
:102B1400D6DD9300DE546013D8000A70A41370A4A9
:102B240029A8052B618778C087D09B07960A395E50
:102B3400918776A5B3F648CEA23819F3D08A3B4BD9
:102B44008AF7782BF7C0EBF380EB568ABE34B08259
:102B540029401F0A48120ED185291803FED082236A
:102B640026BB181566ED00111AD10EB17A5261C652
:102B7400E8CA3D2EC6ECAA5446A285CE077BD89D52
:102B840023E88112C8937DCA008990C71018954222
:102B940026822470081FF08122D0033D8802252854
:102BA400010208011B209F06F580F80230FF023461
:102BB4001F4C51B83F2E95F7511E058080964D82CB
:102BC40008C4032828844870022C700221788116D6
:102BD400B00259686B918B4AC869EC4DFE68C3FC1E
:102BE400A5A1BB11E71266C1413C2AD5C2630AE71D
:102BF400C0F9A1CFD591904C2BD341A1E34D0B8EBD
:102C0400CEC20F9CD1256DBBC65CD2980CBC18EC0F
:102C14008563965341E8052AFC9C5EB80338D06668
:102C24006C26054A759C7F580643D0E6388083514C
:102C3400A0073534B116AD42D125DD3A258796D0AB
:102C4400488DFCBC7A00207AA084098F0339AD83B7
:102C540060F8873BA59C7806E809B7E7E3D26420CF
:102C64000A23C9C9896118046C7E834350E6177529
:102C7400AAC8B1B9ED2EB3E11A91E98C17A2A30D3C
:102C84009B241A9999221C4D55953391BF3916C727
:102C940061B2B34BE527A5629EEB35D8C85D91536D
:102CA400A05D7ACC30EF257CF8CC4E5409FFF77D3B
:102CB4005F339FC4FB0D4D5DD944647D5F7770879E
:102CC40064AD052FB0022A0882499281A06E811555
:102CD4006801FC70564F5B814F0B0226B0022CC872
:102CE400022CD073402F6014C89A141074AD518113
:102CF400A07E8118E00F2BF002646069D153EB7859
:102D040085441B89074C96265F2C2414A6D753EFC1
:102D14008B6DB9C3DAF2EB290802F431015A389702
:102D2400690A0231B0742B70056DF2DB1FA1B2B4D5
:102D34007C5B839E25636A2120126FF2152ECBF6ED
:102D4400DEA4129C7FD09D6BF8010CC027F0914744
:102D54001C906310B8807E8A8224E881FA8B6336E3
:102D64004E823CC88328E80325B8801E28021DD063
:102D7400011068D9DC8650A015EEF2A950E0A6A88F
:102D8400442A81848CC036468448D803E67E0220D7
:102D9400700148C006ECDEB2371576CFED5E5F3ABF
:102DA400DE1FF25CADED75E4A2F126C6F2FFAD3391
:102DB400B10F39676373CF84AF8EBDF1211ED13259
:102DC400118A622A2E97E10AE7394B5F05520642BF
:102DD400C0E609FF84A0AC924A7003094FF0C9AD64
:102DE40017D995F03878836228DF5E910E8B2FEF28
:102DF4000D2F5D0F07A042F3BC0FBF077D78874AF4
:102E04003871147F034250867D58DC0FD9075280F5
:102E14007138B06735814AB57816C6A59C7E180608
:102E240041D8F11ECFB1617AA5B46C6FAD9DDEBF00
:102E3400BD4BEA4016328296DCA2585EC61BC2B86D
:102E44005EBD29AA64B78736DD7A2D5B2EAD0C41B1
:102E5400BEA9425D5A625B622E75F0064C6C076037
:102E64007D69986E0776700764EDCC4E2C61C7DFE0
:102E7400D5CA4C565C18832E38102EF81A2DD06102
:102E84002BB8822AA8822918FD25187D3D9F813DF3
:102E94009FA419601022968125287D2AA0021DA6D0
:102EA40082CFF71A2BC882CCEF82322007FF900B17
:102EB400B97948DD96B86450D7DB96B0877598AB7E
:102EC40052FF453B4CFEE4AF097648031980750078
:102ED400108169748F5C880130509B29D075B2CB06
:102EE40067E2AFA5613A673503FF1369EF2BC4D4DA
:102EF4005EB925B5F8EC6B60010CC8013B29811C57
:102F0400680823388287D0034CB00445D0033606C2
:102F1400882844921C29122549913E7F741829A2BD
:102F240083C88E103778D8C8F0E0418205040808B9
:102F3400E8982081808D1C097C149980C1C60B37C8
:102F440084E4C184498F943E872A218A52A50AA425
:102F540064F3E0C9C3E7F3A7CF7CF8F8F9ECC7AF93
:102F64009FD09FFCF22DE547B4283EA4F884E64B9D
:102F7400CAB46ABFA9597D2EE59A7428D1A74CB961
:102F840012EDB735DFBF9F55834E5DEB54EB50B563
:102F940044F3F93B5A142B55A6FCFE557DDA15ED86
:102FA400D4AE5387E68B1755EDD7AFEF0EFFB99923
:102FB40033C7CDA47FF7C0BE5BD4380EE63774D0D8
:102FC400FDDBFA2FD865CCE3D20AB587EF5FDA765A
:102FD400EDEAA1FEDAF6D31C388F279DFBB7EFDDAF
:102FE400B8D5A8F1D5C3778F1FBD4A71E060CEBCB8
:102FF400A89D52DEF9465D8623885EDAB87BFFF130
:1030040053CD9A6F5C9FA88B097A33E7CD2170A8C2
:10301400A9836D7A957A55AA408762DFBDD62A5274
:10302400B44697E6F38C1E6FD5CE42FB75CE5A7F1D
:103034002C6A4E2D155F7AAE01551F5783F9C5963C
:10304400505D9D359682821975585B56C1E5943D55
:10305400F0B0934E3ADD70A8DA3BF08838E288ECA1
:1030640094C80E8A1AB233CF336558C105175D74FC
:10307400710517564C71E38D32E828C3143CEEF801
:10308400020C31BCF0828E31C4B0238F38DE68C5A7
:103094001559D0582317ABD4B3133C3F4D76E07A7F
:1030A400F8C0F3CE86A78DF7259861A2C6FF9F9836
:1030B4009DE963169965AAB9E698FFB893868E00D0
:1030C4000020422DFA84B94B0C5DACD0C214AEC0C2
:1030D400C3977AFB9135175809C625555E41D1E748
:1030E400DF56844565D77E4999759A5666F145D46D
:1030F40033D708A1031244E09083137DE0E1431425
:103104007E445108268BF4A1472188E0C1C31146AF
:10311400F410C5A8A726E1830E36E080430936548F
:1031240094C003193090C1050F2CF011480078F4B5
:1031340051470220BB00040F5C50420E506092893C
:10314400228500D2C8237B3C81452ACEACC8D37AE1
:103154006F4D68D67F743DC5605B434945A85D8368
:10316400B53B97850DF6D628A2419D3518538D1E83
:103174006AE95C7E9555555D406D2595BE51F98B88
:1031840030A1D26997D5BB519166E13F93B811C77D
:103194006389D0F3D33EC510F24671C3C5510C3ECA
:1031A400FBF8540F73736066C839260335FF8E32FB
:1031B400BD88520929C580F38EC9A6F9049B6C9079
:1031C4008D134E31A354224A2FC68CE3133DBDD533
:1031D4004389C8C5C9560950F5D4B34FCAC3DDD114
:1031E4008ECB25F303B3CC9FD41C0E740D6EADCCE3
:1031F400287478F70621452B83CE5B8A06E69481F2
:103204006C85B52E7FA745CAD46EF1E9D716BA806E
:10321400D687A855970E78D43FFEA0556067ECAECC
:10322400675483EA71E59FDB633578E0BB0B361E98
:10323400975E5F6D090F87E69093CE86A0B3A34E89
:1032440088229AA8214F298EF80A195EC838E315F6
:103254004A06A1638E48CA00030C4306A92391B60B
:103264002789A3154E72018617691003CF3C3E25AA
:103274009FA5BC9BABC3619569B2A9263CDB5CB33B
:10328400CD3AD14FBF3D9BFCB183060C32003000D8
:103294000575DE09831628AC20839F7C453CE94FE5
:1032A40008072AF6E40DEE3B6FBB852AE5FF1F55A0
:1032B400F2EBC58F3FF0912921F080083AC08111CB
:1032C400FE90883C10A10F8EF00311A290883E243A
:1032D4000111968842118EA08422E4C10F469060A9
:1032E400142AE2011078C0031FB8C0471870810C7B
:1032F40064C0031AC8C00B8F75AC04288001112860
:10330400404794B59105A090010B28012030F18726
:103314003D5022124F00431A64310D73A4631EF210
:1033240098CC9512341988C9652F822A8BA304A5D9
:1033340097E44C283007C3A251BA6838A850E8294A
:1033440054849C82B223B1BA20082AEF991CC4D2B7
:1033540013149709663DD1C94A58A2E33889352A1E
:103364002DFF18456CBE638865C4E51FA2884DC84F
:103374008853097AEC636AE19884771489B3B6D0E8
:10338400A3188B78831BDEA04937DC6114E0B047B7
:103394003E7A830F9E3D6611C1608C2653B98862C4
:1033A400280D1FEF601A7142A69961F8E4FF4A7F65
:1033B4006C8E20DAA1C7770C2311A9DCA420483134
:1033C4000EA2EC631CA84C2426DF5089A9A9C56D64
:1033D40082D90F69CA431FD760277F05BA6681E87F
:1033E400E3207FD1EF9A7C71DF52F621397E1D28CC
:1033F4001FF738974FC6689778BD0F2E6B19CC19F5
:10340400B10431FEF9441EF370A28840D70E7378DC
:10341400C31B9E23C73638A48EE79DEE74034D87E5
:10342400336CF18A56B462150E65852A5221D1890E
:103434004E541511B52824D410D1545854A21DFD4E
:10344400E82A54B10A5638B415B0D0C533D461A2B1
:10345400FA8888372772473B9E970E75C0C3305A47
:10346400E15E98F8010F66A8A20C6318031A525182
:103474000B5D5C231DEED01E4EB9E73D340C494E66
:1034840010301F9872F182F4A1807D7F5A4B18C3CB
:103494006216811D068FEA8158DBCC28967851E7A5
:1034A4009C60A5173CE5D5AE500E7008B4FFF243FE
:1034B400221C810888444111883002222EF1073CE5
:1034C400F8210F3B7808118C8087283044117FB095
:1034D40081052EC00090208B011660A1093FF08168
:1034E4001294C0038F6540B042100421FCA0021165
:1034F40080000434B2581A7220817890822424D136
:10350400095928431CE9684788EE1145E6F9C7299B
:10351400F093CA7CFE271848A1152961D18AC06C92
:103524002BAFA3983130F2DAEA5A2F1495AB30AFAF
:10353400B959425873F76394E83C4C2CE4144AE2BA
:10354400A6129DED7CEC3B820886CBFE6119953575
:103554002D0E84A80D6B9461089011271853991AA5
:10356400392A01B29061E63183A0A569F2C1B3445E
:1035740092B7BEC421056FF0119CA6C121966F10AD
:103584000438D65335E7E8726AE3902FC6E8FB188F
:103594004214E31FF508462CE98BB1028B631F022A
:1035A400829B5FAC6221AF14E8B8AE3971FF85E04D
:1035B400D62FB5C20F28FA688B6DF1C60F715AB1B8
:1035C4006490D3CB1DD15946E9D2EB6F7FE3DF7F03
:1035D400E2675D3362132FF59C876CEF81647CDCBA
:1035E40073731D4AC736C8C14F727C8E4356A629D1
:1035F400E7DA31BA7668C81D3325A84C696A5411D4
:10360400B943A6F9C4724CE171D411D5C31DEF9826
:10361400123C062A67757848A052E610976ACA9E3B
:10362400FDDC032D494D0B396C4186DB79C10B322E
:1036340000920C6200832B80410DAC68C674FEBC02
:1036440026FEC0E30C2A788153A1FA25A95A410425
:103654002878412BFEC4961B2B652C73D90A3B8119
:10366400DBAE88390E4DEE8A1771A18246EDC0E3B8
:1036740019CFD8C311F4A0884C64C211A352821F7D
:103684000A01574B38420F474882017B45040D1607
:10369400E1063DD0831E74F0010B80A42324199607
:1036A40064234BD95E7DC0032BF4C00E90FFF00859
:1036B40056B0021265000318B690057567010C8FA9
:1036C4009004243A318B624C631A777E07BEB304AC
:1036D4009834AA114B4059575711B338B5023C419D
:1036E400EF9494C09313B7A79CF37059CAAE730DAB
:1036F400E62F4A3597BAFAB66334AD128E4434468F
:1037040036A230593EC0D15DD9D0C1C0CA68E43FA9
:1037140086415E9025D827EDA84468341C8703832E
:10372400776788947922E9408A7DD863C0B1740CA4
:10373400718893889629EF13CDB9C324CF61B1FE64
:103744004AF80D8328463E309C61FA7A071D6711BA
:103754001059FA3262AF00104DFA08E05DB4CBBFE5
:10376400BA34056EEC795459180516747125401C49
:10377400CB0F18E5F2EF4615FCDF40591E85F2C762
:1037840076C6A1BA997E4FCA3D4F26CA5A5689C9F0
:1037940054D2904C3BD48D6E6C431BDAD846E31B59
:1037A4008F8D6D6063F29087BCE52FAFF9FFCD5F1D
:1037B400FEF1D998BC36B2C179C87F8E892A658753
:1037C4009B91971C335A4AD2F898062BB880BB2099
:1037D4004CC175370A4290A6F002159C60006578CA
:1037E400476724AD264A97C1042DC8B49DA28A8296
:1037F4002B98E0D3A10694C3126530BF0FD750595C
:10380400FAED4FECD1B68B1F06526CA9F5AD8F10B3
:10381400853F14C21196F8831F1AD1083FFC81D842
:103824007AC8431E7CF0D7C9EE20B038F0800FF27E
:1038340060041B74DB871FD188002CC007ECC00E0A
:103844009480641D600818E005D0DF22F842322419
:10385400833110432EFC422DFCC230FC022EE04288
:10386400312843BD8983386403397808BEDDC31326
:103874009191DD6547A37C45DDC54DBF4D5CBD9C85
:10388400E03BE99BD91D461B65DDA320065DCC9674
:1038940076C9DAE22045787D45DD94CB0B525F731F
:1038A400EDC3D2CDDC2290462F984DC688FFC27C52
:1038B400BD0129F4C63FF4C2651CD8D4B0C628CCD7
:1038C400D7700842257CC2227C47661042CBED1794
:1038D40032BDC1D4B9417808182C3D062554422C78
:1038E40011872820C7D42C18D2A1C52768211C0C05
:1038F40042172642D3A0E1388CC32068127DC1014F
:10390400C8880233B14572181722FEDBDC6893E1E4
:10391400BC853F78D5874DE2503CE2DC44E27AB87E
:10392400051A8D517C1C4C51D45162D45D7155489B
:1039340056145EC4E96074451C50D8C3E031592D57
:1039440029994FC0C364CC433DD494D490C888BC57
:10395400833AC0949571883700549401D4E3A50345
:10396400307A8387788E95A9866AAC199B6909C5D4
:1039740065DDBEF5833FF8437F281599E0C32E9497
:10398400C1A111C9122CC114B40EEDE9C812285AF0
:103994000BBC00049801F0498FF07D09F199800A6D
:1039A400205F98E4420A4C010588800A3CFF1F17F7
:1039B400C1C7C4A9510CE65D3375D1F50DD7FD64BB
:1039C40062500845AD45C3130C41B0A15F211442B8
:1039D400225C8223B4DF1FF04005F5810FF8C00D8F
:1039E4007C800DF880ACDC800E24811F244109B05A
:1039F400506261C44728C04668000EEC800D848084
:103A040006688009D94065E94A081CC124C4C22E4D
:103A1400888334288334548334FC64BD85833868B4
:103A240083078A03957D0EB9F8060C4A17E524220C
:103A34005C1C975615E481AC20DF300FA14048226E
:103A44009E98FD28A55AE00B3CECA32A3613C0ED42
:103A54009B76B0C7AC3D4C5158DC693821C6B8815F
:103A640021F884113E21292843682CC268D483D1CB
:103A740021D224D443002903637CC71C54C238E0F8
:103A84005B3B18C35F161825F00519CE1C1D8C82EC
:103A940032C44C776006717CC23FBCD270CCC63253
:103AA4008842CC0D436F50CDD1E99231ACFF176001
:103AB4008A023AD08369866624C14125FC03CC94EA
:103AC400CDD91002291843380CDEF6BDC590599F94
:103AD40034AD8BD9D51100655DDB640E59202215F8
:103AE4000D1751E40D987451C30CA1F4A56062E460
:103AF4008329E21DF5D15D41BE07BA1C9C39F54B03
:103B040052705579300F2AE2433C209928DD432D29
:103B140056C92DC2C3784ACD2DBA94969862808531
:103B24006554901DE204886DB51EF75C432B70014B
:103B34000A9880EE241AED8141174C813706819151
:103B44000889399E413AAEA398B4E30AC88902B8F9
:103B540042A48DC72DCCA308D8A32AAC03F4B14B3F
:103B64000C8651C22865BC6C682676E8715925BF5D
:103B74008CD83FD4DA35B0400D58D01F44811EFC98
:103B8400418B2AC2031510F945010FF0C00DE04026
:103B940011E00111DC4004B1A81EE0C00504E90AEB
:103BA40099E46209C00068800DDCA80B75FFDB078F
:103BB40084409266E4073CDB274843368443354C13
:103BC4004335646936644396568307521988F484EE
:103BD4000EA25582408A88318C1EF1A0DE09C539B7
:103BE40029E272E55D7D5897E2281C39C50F6E966F
:103BF4004B18B1A0C1E8A95A6C9773394EDC50D761
:103C04006774C7770C4238E0433B7497D319CD20CF
:103C1400848C32FCC323358677908269FC5171BC55
:103C2400C17100C53E04C320C8C6810D1319A24D3D
:103C34003120872B2903215C4C1CA021BEADA1CFD0
:103C440080832F49A6202C83C92C582EFD831B6604
:103C5400C65E324EC9F4C21DBC66CBA41CA182C789
:103C640032D806767145A596E509165CC12506F796
:103C740045DC8204E71E3508D92D5735A1C551EC22
:103C8400119668D188316B883A173765A753C48376
:103C94000A0E0CDDE511C2BD4DC35C68514C888031
:103CA400C4A9DCE90B580ACC7C60077FB4FF1E9AD8
:103CB400DCEBF4506352C1832D98010C6CC006B840
:103CC400E30B285A0CCC8E0CB88E80F2CEC0BEC04A
:103CD4000A40001AB843F021E8719668F1A1809C6B
:103CE40008002D24DFA69D800CD4E309AC82A8092A
:103CF40064FEB01819C51D99B61A0A5A486D2D22CA
:103D040073A693890A410D905F1E44C141249025F6
:103D1400F4010F14C1215842B4E9CA4328818E2604
:103D2400501EE8001E14C20E4016B1080BB004E980
:103D3400493C8007AC64AE9090463E044BDE801D47
:103D44006CC230144394FDA40766A9509283369044
:103D5400433BBC9688DC83EAB927DABA277BA62DD5
:103D6400DB0E1CDB0EA42AF6A34FD883CE184A71AF
:103D74001DDC4F581CFC7CC53E2C832F7DC71DD0F9
:103D84005231302164BCC3CBC5921B04C33FA0E6AF
:103D940077D001C9F0C6D2395D85EDC33ED886859A
:103DA400C11C60F6023E1CD21B7E82C9D4FFC39B99
:103DB400518D1C78EA20188365F6CC2480433E1488
:103DC400431D5CEA228483217D263E70DC771082C9
:103DD4003158AEE5DA43E4D2817BE5C33004EB210C
:103DE4003CAA3D78068FB94D76D45DB90C4AC24DD4
:103DF400DFBB22E21639EB53F811E3EC4356240EF1
:103E040040DAA97B6AA5BEF12911B6ED22BAA29CBB
:103E140076EF9E66C7E49CDD725D055E4C239A8C4A
:103E2400873A4A2C4EF1432B9C000450C0069C4018
:103E3400390E89A225DA0BB8CE91EC8890A8C00A75
:103E440034401940ACC6BA6FF0C1031944C009C864
:103E5400490168DA78E8C209BCC004888009E02313
:103E6400F77EEFC87A6FDA76A75280DF24F0411428
:103E740008968B26411438822318010F44422824C3
:103E84000245E8800F141011C470F911C10524C152
:103E94001FF840B104E94B0AE90BC1E40568C00D01
:103EA40024011E14814CFA8A0DC4700FB4FF8429B6
:103EB4009CC2291843369843517EE9512A6388D419
:103EC4000307A358586E5D261A8816A7E2F66AB04F
:103ED400F88231F35C7017F79BDC9E0C2548EA1CD2
:103EE4008CC22805921B8882850DC313428DCA613A
:103EF400CC1B5C8D5080C35FA24D2F0C831FFF71C0
:103F0400312C9D226D6E2089EA3E6CCC3B6C8C5F1B
:103F14009E0D1DF4C2D25C266448433CD4432FCC8E
:103F2400D7777C023D90421BA80C838583A21A425A
:103F34001FFFB11F5B52C7056655FCEED9042F5510
:103F440024A755226FBF1D2F3FC60D1737972B0788
:103F540005BD969109AA55F6EAB2DF8D65C4D56010
:103F6400DBF2298458D705E3A65B085754506F71D8
:103F7400CE936DAC6FFB1AF0F4D40D1A0C00049CB4
:103F8400800A5CF335E36F90C0001768C180F28843
:103F940037ABCF39025F01BB2FA591010498809CF8
:103FA4000C40C6C6A37E52800988802A84FF2C2F29
:103FB4006FB17B72305712E42FF329F86D0223FCA2
:103FC400411E94DF02B5A81E8C1F286842B43184B8
:103FD40011E44AFD254123FC810608800EE8011105
:103FE400680003A85009E9B0B7C1640BE94011287F
:103FF400C141EC68083CAD0F1C8123848226640215
:104004002898023088833B9C8351A683E7800897D5
:10401400D54309A66D316330B7FEDDF762B1C261E5
:1040240071C3089C88252F3CB8866E06645CD8143E
:10403400DB9E7158B28666EA253E1CC27CF12E5F77
:1040440084831C148720900315AA0C78984CC77C91
:10405400CC651282588FB558B72E791D423D70EE4B
:104064006328C2A1D6227AD28320C7C1273C32EA70
:1040740082436FBC9C16CA41306832273F072A87A7
:1040840035598F351D44581C2442C9A0F277A8B273
:10409400182FF65297D818474ABFCD8DBF4D36F723
:1040A40062B152D7332252A51787652D67FF306757
:1040B400872F7141C8FFACEF5ED027346F0F3EA845
:1040C40001054440C09E803567F3900C09175C815C
:1040D400A2E1EF14C40000438081462C349FB30254
:1040E400CB0900D442FBE60205A8400498C0064070
:1040F40002C46AEF2F53F6641BEF9F3AAF2EF7A367
:1041040007EFAC5C25422114B4102742298482FEB7
:104114001D84121C81B4D94005FDC10E2400008009
:1041240000069DD04B765BB1C09006086906E0405E
:10413400AEF800B4DD8093DAC0112C8226608222AE
:10414400EC5A29108D38C0C33E5171E9C40309E209
:10415400737218065367314E3FB7C03D057B0E217D
:10416400F7E9A9B83A0A5283714E37F5675CF5CC82
:104174001142383021A68203E59EC322D4971B1432
:10418400C3276CB22279753044E67060921B649246
:104194008CFF921B10023CA8B51BD8256FBC99D488
:1041A400E4431A733225E0C31ABEC1241CFFEA9B00
:1041B4008D832FF5CC21BCAAD5BC4330988D646E79
:1041C400D28C67128D6FD2211C76B01A8231789806
:1041D400833B576733B6677FB10C4A657363B03E60
:1041E4006B309B8E71747BAF66338F4DC5CD3C08AD
:1041F400459C23179A08089AE8EB339F7699A4B64E
:10420400041CB709C0F30AA8C0A75D9A6C7B736C41
:10421400AF000A60730194C19F94B3C452DA1814B6
:1042240080085CAC2C3C286A10B70A2800FDA682E2
:10423400A8AD8B1CB5F92202AA3D9F7919F71BF88A
:1042440001021F38422240DB1FF481112450280050
:1042540043261C9BA81C040F4C561F6C021E5C00BA
:10426400010040061481486A40088440B611CB0519
:10427400B8D0907A007E7B000719C1111081CE96C8
:104284004229109B22240228940220784235986700
:104294002EBE836CE5F35207B398C7ED858B31C00E
:1042A4005931505017562EF66F85A287BEFFF2C9BA
:1042B400FCC32203662594DC6318E27BF54281CDBE
:1042C400DC24FCAD66F42E3E0C43205EE6201C3C50
:1042D40021207CC20F8220DC0128B771CF244282C6
:1042E400A1A7D4BC435C2F9370A0EE6CFAB832C083
:1042F400B8204AE61DC0C35FCB06C20FC2C227BCAA
:1043040020A4FC2168AEEF02AF318C53F2A62DC07D
:10431400354533D52D3ED0EDCDAB621D41EFA87DA3
:104324006BFC04CE86EB7CB90FFD837BABBCD0EB7E
:1043340083FC1852D42B35EA2B9FB3496A43006B94
:1043440007BA08B836002FFA0AAC001764C10BB4D8
:1043540040D62B3A0AB8B6EF3D3A9F9F33F95CAC8E
:104364002B78499BE802059C40034C0005A402C439
:10437400B239D1C7ED9733CF41EE4193F3810215A2
:104384008240381030888222AC4A41E7811E1441B1
:10439400091C81255C8211A01001640047F60A4BB8
:1043A400BEA40B61F407BC90B078800E80FF40B0CF
:1043B40023C2FAF1F74163822520421F244226FCDE
:1043C4000122F4C2608A27B8F3042A2A782E6B30BB
:1043D40058DA7D589EE56637574B6509CEE77CDD94
:1043E4003B259A8FF13804797DD5D71B282E3C8044
:1043F4001238344D7F395D8255857A9D8D2088C26F
:1044040030084330503FF50743D66EE0549092D3C2
:104414000D4365FAC43BE0C3324835608EC23B6449
:10442400FC6C7C527A2EA1163ACD1DD4C33228EAF4
:10443400208CC2F40B83FDDF7FF62B435220F61B46
:1044440000842165FBEAE1FB870F61C284FC16F25C
:1044540063A810E13F860EF3F563982F1F4485F699
:104464002066CC88B0E23E8C1F35E27BD84FE3C790
:104474007CF63862DC971063499933F191A429D30F
:10448400E6CD923975F64C4992DF3D9420FB0D2D13
:104494006A51A2BF7F4B993675FA146A54A6F8D4B0
:1044A400148040818209111B4C9C38A102FF050A2B
:1044B4001559ACAC001B56850A1127069479F7AF41
:1044C4009F54B951E3C21B3380020000025C19649B
:1044D4001A771705110A26504895EEA04FC58B1977
:1044E400D7B409EF593429760A35CA8409CF8D2205
:1044F400984E956A74A8901E3C78FA144A62A4D126
:10450400253D372E30B86043C78D0F3A8CB066E036
:10451400E143060D1E786B28D15A078E0436106DC0
:10452400CA54CA1426458E2CFDC9132511A24495DC
:1045340046154B87B01E3C7CF2E6D18CD7183CC4A0
:10454400EF8C6DDA1BDFF87CC282F886CA9C479236
:10455400A7C2EE8DE36B1CE5664E1CFDFAE1083C38
:10456400586F9F770C8163BFFDDC30041F7D6AA206
:104574006711FCDEA08394A5F211299FA5F66907B3
:104584009DF53E9983C038DEA8E43F7BEAF96714C1
:104594003AE098E38D3B86A18792384E746392701B
:1045A400F079A79E77DEC9A712383ADC0FFF8E3B5D
:1045B400CEA9E71007EBE8E59F7DFE99B0C8A5DE1C
:1045C4003907A66104790345FF207A684A8DF869A2
:1045D400AFA19A5E4288A1F5F0394F3BED202AC87D
:1045E4009E8A508A091F8E105273267BC444081E6B
:1045F4007BBACBA9BEC5D2F3AEA43BC3BBE99E3DF7
:10460400178229A3A21EE2C74C7E943274AE4415CD
:104614005D8A2A05AEC24A844823FD2A2C2BAA3877
:104624004BACAFBA6AEBADB8164DB4AE3100C86B43
:104634002F57F8690AB0AC0EC02A15771213CF4F62
:1046440099CE3BAF4E9F207B668F3C12D144933C66
:104654006CF021115394012591CA12E9E38F44FEB1
:10466400C023914D16E121830B32F8D5860B3EE829
:10467400C1071C3CB840830F78FB20B70B4A00E10C
:10468400020F6EF08081222C2945134B1249C4126B
:104694004BFA30C288289C402209434651669C8CC0
:1046A400EEF9179F7BE4E933218277D2AEFFCEF98E
:1046B400341A4F4FF7126238CF356545C8E0871377
:1046C400C2B2A4B824C6F2A578D08C953178FE097C
:1046D40006BF02E770A39273F2A9A720784471B1D0
:1046E400400F27D947CD7F2A7943BF370859E6C6FB
:1046F4009AF0A9D198490CE9E51E7E36EC50E761A1
:10470400DEC14E1943708EE3C073E8A9C4C5932774
:1047140001E7E777E25C7291A77914E49C7F28C1F2
:10472400F96443C0592F2378DA296691438201C979
:104734004928DF30C4985A13B287CA9B62FAA8A5E5
:104744009F15FA8E2336BF54682488DEF499BDBBC6
:10475400FF56081E8F54AA28A1C365C21821886772
:104764006AF83B9B008648E1CAFD14DCCFC7112AD6
:104774004AA27C10FD14F5A7A84AA001AC0A8B54E8
:104784002B0A5030C1042BA648412C154E90BDABCA
:1047940002DC822B75B9342E638009F4E2AB42A7A4
:1047A4007429EC00090C7395F19E3A1F9CFF7A3B27
:1047B4003D2F693D8FAB87F399692251A411657B25
:1047C400A00190538029C512471A71243AE69CB37C
:1047D400649328C6D520031C8CF0C1DA1B6CB0216D
:1047E400840C78CB005CB9F140096E508207844098
:1047F4000717B0001132E1AC3F304759A321020F33
:104804007470844A000318D6998776B863B07B4CD9
:104814004F23D963487A065692F9546C4D96BB4996
:104824007AD23614D04DEC7AF800E1DD5ED58F955E
:1048340024CE206D529C0E1D42BDBCC5A31E0C7916
:104844005397F6510C42EC280E270B0641EE560CFA
:104854001415E841A438534D8AE134FE08A217E345
:1048640060193A86B108023D4819F838DA7E1EB458
:10487400AF65F4E2493C02513BA8F6A2ABFD4C3BC8
:10488400D9C187320EE13517F9681FC320C4D3E0BC
:104894003088609C031EF018C73012F14541841122
:1048A4001F718B9232EAC4122FD1A7252FFFD4494E
:1048B400DF6A42A8C2FDCC74687A089B6C8291328C
:1048C40021CE26B3DA88C46682428AD1247B2FECB7
:1048D40093294DA81153CE474D928C184430362855
:1048E400F6082A79C1D325550A3080084820025891
:1048F4009180562455BB2A988002BA13CCA4044054
:104904000691E9439774E9875D002081E3F5055535
:10491400FFD0C5550E709556BD6A70929CA10C656A
:1049240022B999ACE7911A314F496E458A525462C3
:104934000F3DB0C11130210C6064029F9A50CE1F0C
:104944001461897E6E420F3808410F88B0BF28E891
:104954006107B821A00D40801BFA09105C36D0967F
:104964000676201C06100114A698C421FEE0873F99
:10497400E8C1074410291E26212C6514A31DA79CF9
:10498400C70CE5C1B9D1DDED63E454082B652A3DBC
:10499400C26DE491FD184F46D259D356CA049C8A7D
:1049A40061893D0826CB5801281C93B063FF1CEA9B
:1049B400A08C7F888923EF48231909510C7C68C790
:1049C4004DF9F804944C460842D0813F1EA2C3DB43
:1049D40044C1A19825313FFB41D121C2C8A2AAC13B
:1049E400086BD909243EE8918F5ED461473D4A297A
:1049F4008EB8AA56AF821566291A064214F906B66D
:104A0400FA439D35695847181B0F1105AE26B1BCF2
:104A14002ACBD224A2CA5E15B25AE29B49A88425A5
:104A24007F6D0F8799EC8847C0739E71F6642831B7
:104A340005994EC6A953D42296B31631C9511C12F6
:104A44004DD45145000D88C02F2500CC0910139971
:104A540053A8C2EEB222A9AC00C099C0B3AD534270
:104A640055CD6BFA652971D105560E10CCC380B3B0
:104A74004E7933659F7A4A93D35A0C87E49C086431
:104A8400AA610A518802091EC0C32534613E60240C
:104A9400E7389A60C4221C814F4718A15B7D70C41B
:104AA400114A908446E8C1061F28416C40FFF081FA
:104AB4001094005CDFD28DFEFC67030F08C0037CFA
:104AC400004628F820D2288C540F1DD50328946161
:104AD4008C53F8C21C04FB574B0B46B0F9CCE73B94
:104AE4002889073CEE948FEECCA3A528FCCE77361C
:104AF40048A884C0184E311D4FCBDE04B8185EF5AB
:104B0400C4F3E8E93C4CBCDA9218D52743352A3C77
:104B1400EE9356174D421C4C44C84B28E1E4931DB8
:104B2400621C1CE14756CF418992B9E80D3A0A3319
:104B34005A0D9B5251988847601E7312DF30A4AC03
:104B4400558243288A913DB416C838D5231FA3E85B
:104B54006B1C04D18E8C8C63125F864398074DA026
:104B6400FCBC21114B4BE420E4C6D62DC1EA4BA674
:104B740064094C40F2A51503314E6982139C0477F5
:104B84008FB95E754DA4750C4802D51E1B2E64C6E4
:104B940029B1253EF69137D0FECC853CFDA04A21B3
:104BA400C226222384C4F3B071E54658B1FF957E32
:104BB400B0730A43F14C5F2CB01B2F2E60D8F94E12
:104BC400CB2062B0EFDED222A75AEEA77859800933
:104BD400F416DBBD150C32631003E08A4030820109
:104BE400401944E6A96947F72064000004F4020070
:104BF400533D65BA12A8EEF35E158FC5AE74A508D1
:104C04000976E4F4CD398269C7D5FDAEDEE1ECADB9
:104C1400EF303DE319C3408518468003445CA2117C
:104C24008B309F29E215DFF99622134A70300E0A61
:104C3400110A40D8000F96D0830E249AAD687920CB
:104C4400041EC8C0CAC1E51A07278001DE2A400D28
:104C540032810A3D84600778788E11FCE0CF3C48AD
:104C6400BC18A7C8842F527A3860277B831DB1777C
:104C740056552CF0633F5D3D5EA2ACC0F1CD911959
:104C84007F524CEBE9879BF80D75F03A9DC40939C6
:104C9400C8626F3269529A7DB1F5009C7958BCE2C2
:104CA40031A54964C530747EDC30583D29FF830E3C
:104CB400503AF427F611273515E41CA318345AE7A3
:104CC40050F89CBD214628E945DEE970A049B4812D
:104CD400F0741F843012F28E51E8870E6DA8443BA5
:104CE400EC2C2278D4081FE4F0321DF293083F170D
:104CF400641C5B255BE10D0FB5375042460859062D
:104D0400A3EFE086448C23E0955B7A9F24CBA54AED
:104D1400EB3E6DA42649A6B10AEA7A70E4F868ABC2
:104D2400C9414CA71DB8F86C6F2B7B083CE6F11207
:104D340084052A4D13AAF4D8F10C6AEF8B494F2746
:104D44004CF53A6B7A3816E7E3F3E81793C040580A
:104D5400E495BA7DDF0A3376F4AAB7B9ABAE0C1E7C
:104D6400F2E82E66153291D8D6F6DC12A55106402B
:104D7400B7200002AE0D987A2BB882002B9009520E
:104D84008E8BDC942B009B8BDD4A45DAD08D172665
:104D9400000256C504BEE9EF3202EDA0AE73084628
:104DA400944C0C4CF46D1E3227FD96ED93FFC60314
:104DB400B2A6E7568A011258200174E00FFE80085B
:104DC4007C6011DE2B9F4A01E330C114144107407B
:104DD400E0068CE0E156230FE425A442AAA018E0E3
:104DE400013C40032EA035FEE7037CA0072E2001E2
:104DF4005EE3021EA0081A011192A00FD2270F7CB5
:104E040020098A055E8EC31440A1147C011B0EA7E1
:104E14001E686A94B4A772E2C4ED342D727CACEBC4
:104E240032CBD2B8CEFB526DCB2466D262820FADA8
:104E34000E1E540C04EDD0FB04474D2887961283B4
:104E440023B0C4EC34ED867ECF7050D0DE1C4B26EC
:104E5400CA041E8281D1DC401048A1E8D62496847D
:104E6400A18EDC800E44611C4829D308C2183EC1BF
:104E740069DC0016DD200E0EE1138A416510A21DC7
:104E8400C6C60D086118C241140421160D8B149472
:104E94000140926F1CBAC60D0EC1AA38EFF33C8FC5
:104EA400EBC2E16676B118C8A44CDEA118FF2AE172
:104EB4001563710E68B118C86112F1E1F2DA400E9F
:104EC40088844C7C06FC40ADF844917048424D14F3
:104ED4000D11E9EFAADE84CEA06FD4326269326983
:104EE400243C0225D60361D6F1A66022900AC205AD
:104EF4009D0FB3F2E14ED66E876A423BA6289056C8
:104F04000C61C2E4F75662D25CD0621A279D0ED1BE
:104F14001CFD2E7374EA3B0892C5FE24711CCB3C25
:104F240086424C54AB50AE847402302AA86200AC62
:104F3400C2002180B77A2B9822600A96002B6ED289
:104F44007928600300000C10039A54B22EC00000AC
:104F540022E0B9B289192620020A609854411D0E34
:104F640062D676C84D586221BD2FF8526D708428E0
:104F7400D3A6084E0ACE74BE246D30A2241B27FB90
:104F8400408D1F6EA5193AA10430A0047CC008709E
:104F940000E4422114302EA34C01184E61118CA060
:104FA4000460030F3ECA08888034F2200FFF8C404F
:104FB400077AE0C22E4000AC655B9E500A3DE05784
:104FC40076000B1FE00216E002CAD032422113140D
:104FD400A10FF4A00FA4000A0E2114D2D0BC3441B6
:104FE40018C4E1F3BA642BEB43945ECA67E430B1AE
:104FF4007E8C7004A71F5FAD723EC2050F91362FE1
:1050040047964ECB1E6AE8868682F96822A6860AEF
:10501400C8E0648432F12596A1188A4119DEA421DE
:1050240063C91EC021398D41658ECF911A321EF697
:10503400611FCEE1A47EA1177A61188C011CDA618C
:10504400293E721EC2A118864119E8011FCCC1185D
:1050540086A11782A118A401407E46AEF0013A87CA
:105064008167D486463E2F20E76A1C9293182B2B27
:10507400ABF6811CB6F33D8BC118A4E11CB033D34D
:105084006AE21CDA333D1F2D3C28A99C2E679658F2
:10509400D324284DD4541371320638BF11D454C2CA
:1050A400EABA037424C9B5342DC540C22AFFDFD13E
:1050B4006340341313AB106B4D25BCEF0EFF213D41
:1050C400D6E39374825050D286CC4D25FFE220D093
:1050D40000000600021C05021AC0002300027A0B1D
:1050E4000260200628A0302820DB76720C5CE527BD
:1050F40027F0204485284B05BA80671734D02A4C02
:1051040000121023D96854D3526BA7CCF46F3E52CB
:105114004D322D1E1C91D21007360D02AA0C07E148
:10512400AEE1171E210730C05C7040078840573439
:10513400C114D2F0148E0114F82B0492800F0A01CA
:105144000F9240098AA05EF2E00FDAB208F4200A56
:1051540042C035BC45030A4C0A354003ECA704168B
:105164008000166001120007FE000D4F011310416C
:105174007DF40009EC4013DE4B508761188A611BF3
:105184006EADEB5EADE064F323A19245EF24B3EA88
:10519400D47314917ACE434D540811330D471D0630
:1051A400A8C0E3932454D9D4949D2E2B97FF5E82F8
:1051B40046E6907AECC14824C4CEFCC61D7A9523F9
:1051C400984224FE22598D043B67E43A8BC45CE187
:1051D4008865E42A7908821E029265ECECF3F06C8F
:1051E4002A868A1F3DC55C9962651E495BF99593C1
:1051F4002851EADEB141C9725A7DE691E22825645C
:10520400A220562643CBB46072A22018F145CDD417
:10521400051DF2C7D62970A06AE9DED1D240D0EFCD
:10522400CC430E4B94230E2796DA8EFCE2D062D840
:105234003192EAF0ECC8AE2192C7477F1478F0E1CE
:105244000C04C02A8CD4008D544921400664800289
:10525400820929657227936B6697AB28F04154AC99
:10526400692F64E1028127032140294F200DC8E101
:10527400488E4D9676F53B4C93461DF661A2D2635B
:10528400AF8A61C45220414264812872EE5419707D
:10529400E10B68000432A0047860076CC0082C019C
:1052A400187CC1144E21140E21074A80E3FF30CE2E
:1052B400529340077CA034FCE008782009FC00A449
:1052C4003EA05BC6A504C6C5A16C200992200312AA
:1052D400A0542F00078A00114AE11454350AFAE059
:1052E400121C4111FC60734F41508DE1174EC116E1
:1052F4003FAF12DD6E2255D121E9304D1092FCAC46
:105304004EF736A24D31B1B22E2DB318460E7D772D
:10531400D244F6ECD4E3B26EACC88CACD648C973B4
:1053240060F66B53284ED23112D5031EB48665E263
:1053340001C524C74DDAB55EE715D400677AEF6C72
:10534400C5EAECD34432F96C847AE575D358A63BAC
:10535400E48AC586EA4DEEA13EB5F70D1936D33879
:1053640029126DD7B1EA3765D3894D9CB34D4348B3
:1053740026728F26F0A624F8414156683CFC0EBCE8
:105384001CCBC76A57D37AF762E16E2B59C22053FC
:1053940048773FF212D5717076151159426B6DD76B
:1053A400D2A8A77D39F80E8317C932A287FFFC2142
:1053B400256916DD6C16007216495FD20025A0011E
:1053C4001A4006624003B36DB7F2C2687FB4B9985D
:1053D40016005AA14B01E3DA0A20024CA06A832A80
:1053E40005EFA67D218B0FC596DFBCB6ED2C98D3B7
:1053F4000A2E2AD964E974379C3616E1B2E11A7090
:10540400010CF2D2377440077680081041758BC1C5
:10541400141C210A6C80302DE1144CA111C6307388
:1054240017A111FC200A92000FF44034888037F44D
:10543400C7034000C10CAC0488A00F1C9300126089
:105444008040E008424118D8250A70200A146112ED
:1054540000810F1AA11444216F41410D95A13BE035
:10546400B07282572417E710B1188B39ED581D6BB1
:1054740012ED0DE01AF658EF57773B9645435970F5
:10548400B4563E1222EC22E2625C7480895584197F
:1054940076ED56EC58D9517A2B0D4C0AC24B92AE8C
:1054A40058354D8E921778278BED8455C9FF9CD1C2
:1054B400F3EA35EBE893C7948C812FD105E7973E47
:1054C4001447991F3811258622873784E104FC3458
:1054D400560FD1D6F7D2140E37B427DCAE822DADD9
:1054E4008933789EDD6EE95C4D246F487004D23CAC
:1054F400CAA40E2F3178FFC6776DD96C191825A070
:105504004AC96E3796627994973921EFE12304658D
:10551400855958636E96481540A3357A678FB40150
:1055240062E0059454262500268BF6997C384B01BD
:10553400C078F6621586F81FBE54020AA00028201F
:105544000D1083FAC889228F35B2BAAE99E99984CD
:1055540003C783494922CD23F8529935C5E456B28D
:10556400C1195861052E808CF7C77E8860082AE12E
:105574003CF7B62F93E00F2C01144661130A21A4C3
:1055840000A11236C1396E300F94403313C803485A
:105594000E3742003678E0069460118A600104C038
:1055A40035183913304814FE60086EE008FF22A154
:1055B4006DDA4B1432391334011486814990CE6369
:1055C40024A741872A3D18D80EB5F9768BF7813385
:1055D400E761BA03E02C2773A4924A04D10575DA73
:1055E400D2CA3959957796297474E014124FB96B5D
:1055F4000FF6FD48586CCD09BC3C98FA20D2A7B4EC
:105604006389FB6FCBDAC3ED92AFEDBA4F4EFA5715
:1056140044049295E52A3BDC849B2F6DE91AD23A27
:10562400E3E11E646910E3746FD4A964A90747F128
:10563400571575BA4D910F1D357887FA7561DF11CD
:10564400C9462985C23B274679C6FA118357D34DEB
:105654001418B33347242DC789A357783FAD763345
:105664007899079AED443292EEDB39CFE9272A8202
:105674008599EB20CE80000660A3353A861DA501EE
:1056840014E086776BB796149878B8DC501A1FD458
:105694008D5404A0A5950B9A9881022060005605AC
:1056A4000DCA2131AC3265BF4438336B3DFFB803BA
:1056B400B5154B40B507AB1AB8BD5B42240329F8B6
:1056C400CA12E1AA4117B860008683824280072685
:1056D400E8081A41132AA111FA200FF8F810B4DAD5
:1056E40014BABA08A0E01392A310DEC53994000FCF
:1056F4000AA10FAA450778C08D8960077C200A4853
:1057040063132C610712E030E7A911E852141A61FF
:105714001216210A8EA0106215184021BE06D51457
:105724008C211ECAF20E2F11656DA8A131D18447B8
:105734001C7FA71B135782C5750FCF7BF5A6640981
:1057440004C98F84775592B4D86C29ED8578F31108
:105754007599273E2D3827EDA6E3115841697BE062
:10576400A14F901BB3189D1F374DD2D663D688DB4B
:105774008A655914611B9DE9D5CE1C12D66357D690
:1057840031F885D84E9C614A388DD96FCAB122EF61
:10579400D0704AF2EF2C5B210A4288007AA7ED9080
:1057A4004C56C26B3DC7B57DCF9F57D6B1FFA649B6
:1057B4002C37C220DB0EA9D9A37164992B6D373B1A
:1057C4005899BC2B241E77FA95D10EFF12FD6E88D2
:1057D4003A5B0111A219D8ECD6C93653B34A2E024A
:1057E40000FFBB66CF602F647AA3135CA3955401BA
:1057F40060E00592746795D4787A1828D34D0056E2
:10580400DAC20DC253E2821936406A0FA001C860A1
:105814001B423CDD2FABF78CBB6449F4623B322462
:10582400093D7ACFEE9F09114E2C1BE19E81168013
:10583400400012E009F5C7066E000F1C61528D800E
:105844008F93F03232411484E11470300F3E6118AA
:1058540022A110D26759F4A01098430F3200040615
:10586400B7CBEB6512426113EA0B117460016EC38E
:1058740006EC6013DEBCEA4F610FD2BA128EE1145B
:105884004021128EE3BD402118C4E167E664C5D20D
:1058940066E35B30443B3B044378D045D8833D7892
:1058A400D1B583B52729120B4E61488C4DFF945511
:1058B400B4FFD163834A47E784D542E84E905B2422
:1058C400123B3655D46358067EE1C11DB075F8CC41
:1058D4001105CBD14DB4464456AC7A517677BF848A
:1058E400C53AFF6C59993F3BB2F35D3D8BDBEED279
:1058F4001416D2B799987D8F126FA2578575714C83
:10590400B678797DD34022E03C2DD4EE46ED48DCD8
:10591400B68FCC94E33EE4551083771561861BDD86
:105924005F3CABFAB0B2540CBF437EBF7DDDDE32C8
:10593400826118FBF8DB5D2A552264ED41C5E21E45
:10594400F8BA7B212C422972C9A2035C00081CDF2F
:1059540077B6C0FBFDDF752B021AA0001C05C2251B
:10596400F0DC86072F8EE7C217FE1F9261022640E5
:10597400A6010202996DFFF0E18B87301E3E7B0683
:1059840015E68B672FA2427BF00CD6BB776F9EC1C6
:105994008812F13DB407315EBE830C17465C38D1E2
:1059A40023448EFD0C1EBC880FDEB367BBFFCC4CBA
:1059B40058704140020D1E2E10B164498787288912
:1059C400FEFCC904AC54A653CA4AF581B2C8D7B088
:1059D400528D32612AF44791A34C9B1C11C960C3B8
:1059E40048143D8734992A35094F214B8D8A642008
:1059F4002040C72451992C9D023649078823984C8E
:105A0400898AB4A9542951A57A4933286F1EC27AC8
:105A1400154BAE8CC8F831C7C99313229428993218
:105A240047979CFB21E40CDAE548CE9539575CB8DE
:105A3400B164497CF55087DEF83AF6EBD1B25DC328
:105A4400B6DDD034C9DBBA637E0EA93066EBCDF087
:105A540034C6E407111E4378F540C2838750F96ABF
:105A6400DF099F738ECE1C783CE8DB835B7E0EFEE1
:105A7400746B8FAFBDEB069FDB60F8C6CF9DFB3E1A
:105A84001D127ACC83A7D72B6F9E703EE791CC95DD
:105A9400DF63081168EDA5F71A659F99A45974ADE1
:105AA400FD065164C06966E04ADE414821FF650D88
:105AB4002504D265151AC8D1841C5288607007B9B0
:105AC400C40F79F8F4D3CF3F2AAEC8628B2EBED868
